:1000000011271FBFCFE5D0E0DEBFCDBF48ED4CBF0D
:1000100016BF75D0C82FD92F892B31F012D08D2F54
:100020003CD08C2F3AD017D08FEF8FD08FEF8DD060
:100030008FEF8BD08FEF89D0ECCF42B14A7F42B99E
:1000400008950A98089881E080D0089A81E07DD0D0
:100050000A9A81E07AC0089A81E077D00A9881E014
:1000600074D0089881E071C0811302C0089A01C061
:1000700008980A9881E069D00A9A81E066D00898C9
:100080000895CF930A9881E060D0C0B10A9A81E0C8
:100090005CD08C2F8170CF910895CF93C82F80783A
:1000A000E3DF8C2F8074E0DF8C2F8072DDDF8C2FFC
:1000B0008071DADF8C2F8870D7DF8C2F8470D4DFCB
:1000C0008C2F8270D1DF8C2F8170CEDFDADF41E0A0
:1000D000811340E0842FCF9108953F93CF93DF9316
:1000E000382FD8E0C0E0CC0FCCDFC82BD150D9F7E7
:1000F000832FBADF8C2FDF91CF913F910895CF935B
:10010000DF939FDF80E8C9DF811304C0A4DF80E0B4
:1001100090E015C083EFC1DF9EDF8FEF16D091DF37
:1001200081E8BBDF882391F380E0D7DF90E0D82F10
:10013000CC2781E0D2DFC82B8EDF8C2F9D2FDF9163
:10014000CF9108958150F1F708953F932F932BE0BD
:1001500031E03A95F1F72A95E1F78150C1F72F91F7
:040160003F9108952E
:00000001FF
