:1000000009C01BC01AC019C018C017C016C015C03F
:1000100014C013C011271FBFCFE5D0E0DEBFCDBF96
:1000200020E0A0E4B0E0E4EFF0E402C031913D93C1
:10003000A634B207D9F74BD05BC0E2CF129A41EC9D
:1000400050E041505040E9F700C000001298E1EC48
:10005000F0E0E150F040E9F700C0000040E050E07F
:10006000682F082F000F770BE62FF72F042F02C001
:10007000F595E7950A95E2F7E0FF02C0129A01C0F4
:100080001298E1ECF0E0E150F040E9F700C0000028
:100090004F5F5F4F4830510739F7129A41EC50E0FB
:1000A00041505040E9F700C000008A3011F48DE063
:1000B000C5CF0895CF93DF93C82FD92F8991882377
:1000C00011F0BCDFFBCF8AE0DF91CF91B7CF48EDD5
:1000D0004CBF16BF0A9A80E490E0ECDF4FEF59E680
:1000E00068E1415050406040E1F700C00000F3CFAC
:0400F000F894FFCFB2
:0600F40068656C6C6F00F2
:00000001FF
